{
  "contractName": "OrderManagement",
  "abi": [
    {
      "anonymous": false,
      "inputs": [
        {
          "indexed": false,
          "internalType": "uint256",
          "name": "id",
          "type": "uint256"
        },
        {
          "indexed": false,
          "internalType": "address",
          "name": "user",
          "type": "address"
        },
        {
          "indexed": false,
          "internalType": "string",
          "name": "status",
          "type": "string"
        },
        {
          "indexed": false,
          "internalType": "string",
          "name": "shippingAddress",
          "type": "string"
        },
        {
          "indexed": false,
          "internalType": "string[]",
          "name": "productSlugs",
          "type": "string[]"
        },
        {
          "indexed": false,
          "internalType": "uint256",
          "name": "createdAt",
          "type": "uint256"
        }
      ],
      "name": "OrderCreated",
      "type": "event"
    },
    {
      "anonymous": false,
      "inputs": [
        {
          "indexed": false,
          "internalType": "uint256",
          "name": "id",
          "type": "uint256"
        },
        {
          "indexed": false,
          "internalType": "string",
          "name": "status",
          "type": "string"
        }
      ],
      "name": "OrderStatusUpdated",
      "type": "event"
    },
    {
      "inputs": [],
      "name": "orderCount",
      "outputs": [
        {
          "internalType": "uint256",
          "name": "",
          "type": "uint256"
        }
      ],
      "stateMutability": "view",
      "type": "function",
      "constant": true
    },
    {
      "inputs": [
        {
          "internalType": "uint256",
          "name": "",
          "type": "uint256"
        }
      ],
      "name": "orders",
      "outputs": [
        {
          "internalType": "uint256",
          "name": "id",
          "type": "uint256"
        },
        {
          "internalType": "address",
          "name": "user",
          "type": "address"
        },
        {
          "internalType": "string",
          "name": "status",
          "type": "string"
        },
        {
          "internalType": "string",
          "name": "shippingAddress",
          "type": "string"
        },
        {
          "internalType": "uint256",
          "name": "createdAt",
          "type": "uint256"
        }
      ],
      "stateMutability": "view",
      "type": "function",
      "constant": true
    },
    {
      "inputs": [
        {
          "internalType": "address",
          "name": "user",
          "type": "address"
        },
        {
          "internalType": "string",
          "name": "shippingAddress",
          "type": "string"
        },
        {
          "internalType": "string[]",
          "name": "productSlugs",
          "type": "string[]"
        }
      ],
      "name": "createOrder",
      "outputs": [
        {
          "internalType": "uint256",
          "name": "",
          "type": "uint256"
        }
      ],
      "stateMutability": "nonpayable",
      "type": "function"
    },
    {
      "inputs": [
        {
          "internalType": "uint256",
          "name": "id",
          "type": "uint256"
        },
        {
          "internalType": "string",
          "name": "status",
          "type": "string"
        }
      ],
      "name": "updateOrderStatus",
      "outputs": [],
      "stateMutability": "nonpayable",
      "type": "function"
    },
    {
      "inputs": [
        {
          "internalType": "uint256",
          "name": "id",
          "type": "uint256"
        }
      ],
      "name": "getOrder",
      "outputs": [
        {
          "components": [
            {
              "internalType": "uint256",
              "name": "id",
              "type": "uint256"
            },
            {
              "internalType": "address",
              "name": "user",
              "type": "address"
            },
            {
              "internalType": "string",
              "name": "status",
              "type": "string"
            },
            {
              "internalType": "string",
              "name": "shippingAddress",
              "type": "string"
            },
            {
              "internalType": "string[]",
              "name": "productSlugs",
              "type": "string[]"
            },
            {
              "internalType": "uint256",
              "name": "createdAt",
              "type": "uint256"
            }
          ],
          "internalType": "struct OrderManagement.Order",
          "name": "",
          "type": "tuple"
        }
      ],
      "stateMutability": "view",
      "type": "function",
      "constant": true
    }
  ],
  "bytecode": "0x608060405234801561001057600080fd5b5061156f806100206000396000f3fe608060405234801561001057600080fd5b5060043610610074576000357c010000000000000000000000000000000000000000000000000000000090048063205fdde6146100795780632453ffa814610095578063a85c38ef146100b3578063d09ef241146100e7578063dedba11314610117575b600080fd5b610093600480360381019061008e9190610aa8565b610147565b005b61009d6101ff565b6040516100aa9190610b13565b60405180910390f35b6100cd60048036038101906100c89190610b2e565b610205565b6040516100de959493929190610c1b565b60405180910390f35b61010160048036038101906100fc9190610b2e565b61036b565b60405161010e9190610e3d565b60405180910390f35b610131600480360381019061012c9190610f71565b610656565b60405161013e9190610b13565b60405180910390f35b6000806000848152602001908152602001600020600001540361019f576040517f08c379a000000000000000000000000000000000000000000000000000000000815260040161019690611048565b60405180910390fd5b8060008084815260200190815260200160002060020190816101c1919061127a565b507f69cc2ff377f3eb15084b7510fd6ee5543db4f1e15b8385d9f0c804cbe9edd0fc82826040516101f392919061134c565b60405180910390a15050565b60015481565b60006020528060005260406000206000915090508060000154908060010160009054906101000a900473ffffffffffffffffffffffffffffffffffffffff169080600201805461025490611097565b80601f016020809104026020016040519081016040528092919081815260200182805461028090611097565b80156102cd5780601f106102a2576101008083540402835291602001916102cd565b820191906000526020600020905b8154815290600101906020018083116102b057829003601f168201915b5050505050908060030180546102e290611097565b80601f016020809104026020016040519081016040528092919081815260200182805461030e90611097565b801561035b5780601f106103305761010080835404028352916020019161035b565b820191906000526020600020905b81548152906001019060200180831161033e57829003601f168201915b5050505050908060050154905085565b6103736107f2565b600080600084815260200190815260200160002060000154036103cb576040517f08c379a00000000000000000000000000000000000000000000000000000000081526004016103c290611048565b60405180910390fd5b6000808381526020019081526020016000206040518060c0016040529081600082015481526020016001820160009054906101000a900473ffffffffffffffffffffffffffffffffffffffff1673ffffffffffffffffffffffffffffffffffffffff1673ffffffffffffffffffffffffffffffffffffffff16815260200160028201805461045890611097565b80601f016020809104026020016040519081016040528092919081815260200182805461048490611097565b80156104d15780601f106104a6576101008083540402835291602001916104d1565b820191906000526020600020905b8154815290600101906020018083116104b457829003601f168201915b505050505081526020016003820180546104ea90611097565b80601f016020809104026020016040519081016040528092919081815260200182805461051690611097565b80156105635780601f1061053857610100808354040283529160200191610563565b820191906000526020600020905b81548152906001019060200180831161054657829003601f168201915b5050505050815260200160048201805480602002602001604051908101604052809291908181526020016000905b8282101561063d5783829060005260206000200180546105b090611097565b80601f01602080910402602001604051908101604052809291908181526020018280546105dc90611097565b80156106295780601f106105fe57610100808354040283529160200191610629565b820191906000526020600020905b81548152906001019060200180831161060c57829003601f168201915b505050505081526020019060010190610591565b5050505081526020016005820154815250509050919050565b60006001600081548092919061066b906113ab565b91905055506040518060c0016040528060015481526020018573ffffffffffffffffffffffffffffffffffffffff1681526020016040518060400160405280600781526020017f50656e64696e670000000000000000000000000000000000000000000000000081525081526020018481526020018381526020014281525060008060015481526020019081526020016000206000820151816000015560208201518160010160006101000a81548173ffffffffffffffffffffffffffffffffffffffff021916908373ffffffffffffffffffffffffffffffffffffffff1602179055506040820151816002019081610764919061127a565b50606082015181600301908161077a919061127a565b50608082015181600401908051906020019061079792919061083e565b5060a082015181600501559050507f0ca589272c031ac051e69453bcdf6dfc89385656e454418e230803e4588e4543600154858585426040516107de9594939291906114c5565b60405180910390a160015490509392505050565b6040518060c0016040528060008152602001600073ffffffffffffffffffffffffffffffffffffffff168152602001606081526020016060815260200160608152602001600081525090565b828054828255906000526020600020908101928215610886579160200282015b82811115610885578251829081610875919061127a565b509160200191906001019061085e565b5b5090506108939190610897565b5090565b5b808211156108b757600081816108ae91906108bb565b50600101610898565b5090565b5080546108c790611097565b6000825580601f106108d957506108f8565b601f0160209004906000526020600020908101906108f791906108fb565b5b50565b5b808211156109145760008160009055506001016108fc565b5090565b6000604051905090565b600080fd5b600080fd5b6000819050919050565b61093f8161092c565b811461094a57600080fd5b50565b60008135905061095c81610936565b92915050565b600080fd5b600080fd5b6000601f19601f8301169050919050565b7f4e487b7100000000000000000000000000000000000000000000000000000000600052604160045260246000fd5b6109b58261096c565b810181811067ffffffffffffffff821117156109d4576109d361097d565b5b80604052505050565b60006109e7610918565b90506109f382826109ac565b919050565b600067ffffffffffffffff821115610a1357610a1261097d565b5b610a1c8261096c565b9050602081019050919050565b82818337600083830152505050565b6000610a4b610a46846109f8565b6109dd565b905082815260208101848484011115610a6757610a66610967565b5b610a72848285610a29565b509392505050565b600082601f830112610a8f57610a8e610962565b5b8135610a9f848260208601610a38565b91505092915050565b60008060408385031215610abf57610abe610922565b5b6000610acd8582860161094d565b925050602083013567ffffffffffffffff811115610aee57610aed610927565b5b610afa85828601610a7a565b9150509250929050565b610b0d8161092c565b82525050565b6000602082019050610b286000830184610b04565b92915050565b600060208284031215610b4457610b43610922565b5b6000610b528482850161094d565b91505092915050565b600073ffffffffffffffffffffffffffffffffffffffff82169050919050565b6000610b8682610b5b565b9050919050565b610b9681610b7b565b82525050565b600081519050919050565b600082825260208201905092915050565b60005b83811015610bd6578082015181840152602081019050610bbb565b60008484015250505050565b6000610bed82610b9c565b610bf78185610ba7565b9350610c07818560208601610bb8565b610c108161096c565b840191505092915050565b600060a082019050610c306000830188610b04565b610c3d6020830187610b8d565b8181036040830152610c4f8186610be2565b90508181036060830152610c638185610be2565b9050610c726080830184610b04565b9695505050505050565b610c858161092c565b82525050565b610c9481610b7b565b82525050565b600082825260208201905092915050565b6000610cb682610b9c565b610cc08185610c9a565b9350610cd0818560208601610bb8565b610cd98161096c565b840191505092915050565b600081519050919050565b600082825260208201905092915050565b6000819050602082019050919050565b6000610d1c8383610cab565b905092915050565b6000602082019050919050565b6000610d3c82610ce4565b610d468185610cef565b935083602082028501610d5885610d00565b8060005b85811015610d945784840389528151610d758582610d10565b9450610d8083610d24565b925060208a01995050600181019050610d5c565b50829750879550505050505092915050565b600060c083016000830151610dbe6000860182610c7c565b506020830151610dd16020860182610c8b565b5060408301518482036040860152610de98282610cab565b91505060608301518482036060860152610e038282610cab565b91505060808301518482036080860152610e1d8282610d31565b91505060a0830151610e3260a0860182610c7c565b508091505092915050565b60006020820190508181036000830152610e578184610da6565b905092915050565b610e6881610b7b565b8114610e7357600080fd5b50565b600081359050610e8581610e5f565b92915050565b600067ffffffffffffffff821115610ea657610ea561097d565b5b602082029050602081019050919050565b600080fd5b6000610ecf610eca84610e8b565b6109dd565b90508083825260208201905060208402830185811115610ef257610ef1610eb7565b5b835b81811015610f3957803567ffffffffffffffff811115610f1757610f16610962565b5b808601610f248982610a7a565b85526020850194505050602081019050610ef4565b5050509392505050565b600082601f830112610f5857610f57610962565b5b8135610f68848260208601610ebc565b91505092915050565b600080600060608486031215610f8a57610f89610922565b5b6000610f9886828701610e76565b935050602084013567ffffffffffffffff811115610fb957610fb8610927565b5b610fc586828701610a7a565b925050604084013567ffffffffffffffff811115610fe657610fe5610927565b5b610ff286828701610f43565b9150509250925092565b7f4f7264657220646f6573206e6f74206578697374000000000000000000000000600082015250565b6000611032601483610ba7565b915061103d82610ffc565b602082019050919050565b6000602082019050818103600083015261106181611025565b9050919050565b7f4e487b7100000000000000000000000000000000000000000000000000000000600052602260045260246000fd5b600060028204905060018216806110af57607f821691505b6020821081036110c2576110c1611068565b5b50919050565b60008190508160005260206000209050919050565b60006020601f8301049050919050565b60008160020a8302905092915050565b60006008830261112d7fffffffffffffffffffffffffffffffffffffffffffffffffffffffffffffffff826110ed565b61113786836110ed565b95508019841693508086168417925050509392505050565b6000819050919050565b600061117461116f61116a8461092c565b61114f565b61092c565b9050919050565b6000819050919050565b61118e83611159565b6111a261119a8261117b565b8484546110fd565b825550505050565b600090565b6111b76111aa565b6111c2818484611185565b505050565b5b818110156111e6576111db6000826111af565b6001810190506111c8565b5050565b601f82111561122b576111fc816110c8565b611205846110dd565b81016020851015611214578190505b611228611220856110dd565b8301826111c7565b50505b505050565b60008160020a8304905092915050565b600061125160001984600802611230565b1980831691505092915050565b600061126a8383611240565b9150826002028217905092915050565b61128382610b9c565b67ffffffffffffffff81111561129c5761129b61097d565b5b6112a68254611097565b6112b18282856111ea565b600060209050601f8311600181146112e457600084156112d2578287015190505b6112dc858261125e565b865550611344565b601f1984166112f2866110c8565b60005b8281101561131a578489015182556001820191506020850194506020810190506112f5565b868310156113375784890151611333601f891682611240565b8355505b6001600288020188555050505b505050505050565b60006040820190506113616000830185610b04565b81810360208301526113738184610be2565b90509392505050565b7f4e487b7100000000000000000000000000000000000000000000000000000000600052601160045260246000fd5b60006113b68261092c565b91507fffffffffffffffffffffffffffffffffffffffffffffffffffffffffffffffff82036113e8576113e761137c565b5b600182019050919050565b7f50656e64696e6700000000000000000000000000000000000000000000000000600082015250565b6000611429600783610ba7565b9150611434826113f3565b602082019050919050565b600082825260208201905092915050565b600061145b82610ce4565b611465818561143f565b93508360208202850161147785610d00565b8060005b858110156114b357848403895281516114948582610d10565b945061149f83610d24565b925060208a0199505060018101905061147b565b50829750879550505050505092915050565b600060c0820190506114da6000830188610b04565b6114e76020830187610b8d565b81810360408301526114f88161141c565b9050818103606083015261150c8186610be2565b905081810360808301526115208185611450565b905061152f60a0830184610b04565b969550505050505056fea264697066735822122077f0dbeddc03b37c3a4be281f4766d13080ca14c1beb01351eb4c1e00030e79864736f6c63430008150033",
  "immutableReferences": {},
  "source": "// SPDX-License-Identifier: MIT\npragma solidity ^0.8.0;\n\ncontract OrderManagement {\n    struct Order {\n        uint256 id;\n        address user;\n        string status;\n        string shippingAddress;\n        string[] productSlugs;\n        uint256 createdAt;\n    }\n\n    mapping(uint256 => Order) public orders;\n    uint256 public orderCount;\n\n    event OrderCreated(\n        uint256 id,\n        address user,\n        string status,\n        string shippingAddress,\n        string[] productSlugs,\n        uint256 createdAt\n    );\n    event OrderStatusUpdated(uint256 id, string status);\n\n    function createOrder(\n        address user,\n        string memory shippingAddress,\n        string[] memory productSlugs\n    ) public returns (uint256) {\n        orderCount++;\n        orders[orderCount] = Order(\n            orderCount,\n            user,\n            \"Pending\",\n            shippingAddress,\n            productSlugs,\n            block.timestamp\n        );\n        emit OrderCreated(\n            orderCount,\n            user,\n            \"Pending\",\n            shippingAddress,\n            productSlugs,\n            block.timestamp\n        );\n        return orderCount;\n    }\n\n    function updateOrderStatus(uint256 id, string memory status) public {\n        require(orders[id].id != 0, \"Order does not exist\");\n        orders[id].status = status;\n        emit OrderStatusUpdated(id, status);\n    }\n\n    function getOrder(uint256 id) public view returns (Order memory) {\n        require(orders[id].id != 0, \"Order does not exist\");\n        return orders[id];\n    }\n}\n",
  "sourcePath": "E:\\University\\Project\\HK8\\TTTN\\TTTN_Ecommerce\\contracts\\contracts\\OrderManagement.sol",
  "compiler": {
    "name": "solc",
    "version": "0.8.21+commit.d9974bed.Linux.g++"
  },
  "schemaVersion": "3.4.16",
  "updatedAt": "2025-02-27T14:23:24.504Z",
  "networkType": "ethereum",
  "devdoc": {
    "kind": "dev",
    "methods": {},
    "version": 1
  },
  "userdoc": {
    "kind": "user",
    "methods": {},
    "version": 1
  }
}